{
  "contractName": "Operator",
  "abi": [
    {
      "inputs": [],
      "stateMutability": "nonpayable",
      "type": "constructor"
    },
    {
      "anonymous": false,
      "inputs": [
        {
          "indexed": true,
          "internalType": "address",
          "name": "admin",
          "type": "address"
        }
      ],
      "name": "CelebrityAdminAdded",
      "type": "event"
    },
    {
      "anonymous": false,
      "inputs": [
        {
          "indexed": true,
          "internalType": "address",
          "name": "admin",
          "type": "address"
        }
      ],
      "name": "CelebrityAdminRemoved",
      "type": "event"
    },
    {
      "anonymous": false,
      "inputs": [
        {
          "indexed": true,
          "internalType": "address",
          "name": "minter",
          "type": "address"
        }
      ],
      "name": "MinterAdded",
      "type": "event"
    },
    {
      "anonymous": false,
      "inputs": [
        {
          "indexed": true,
          "internalType": "address",
          "name": "minter",
          "type": "address"
        }
      ],
      "name": "MinterRemoved",
      "type": "event"
    },
    {
      "anonymous": false,
      "inputs": [
        {
          "indexed": true,
          "internalType": "address",
          "name": "nftaddress",
          "type": "address"
        },
        {
          "indexed": true,
          "internalType": "uint256",
          "name": "tokenId",
          "type": "uint256"
        },
        {
          "indexed": false,
          "internalType": "string",
          "name": "name",
          "type": "string"
        }
      ],
      "name": "NameChanged",
      "type": "event"
    },
    {
      "anonymous": false,
      "inputs": [
        {
          "indexed": true,
          "internalType": "address",
          "name": "previousOwner",
          "type": "address"
        },
        {
          "indexed": true,
          "internalType": "address",
          "name": "newOwner",
          "type": "address"
        }
      ],
      "name": "OwnershipTransferred",
      "type": "event"
    },
    {
      "inputs": [],
      "name": "owner",
      "outputs": [
        {
          "internalType": "address",
          "name": "",
          "type": "address"
        }
      ],
      "stateMutability": "view",
      "type": "function",
      "constant": true
    },
    {
      "inputs": [
        {
          "internalType": "address",
          "name": "newOwner",
          "type": "address"
        }
      ],
      "name": "transferOwnership",
      "outputs": [
        {
          "internalType": "bool",
          "name": "",
          "type": "bool"
        }
      ],
      "stateMutability": "nonpayable",
      "type": "function"
    },
    {
      "inputs": [
        {
          "internalType": "address",
          "name": "_celebrityAdmin",
          "type": "address"
        }
      ],
      "name": "addCelebrityAdmin",
      "outputs": [
        {
          "internalType": "bool",
          "name": "",
          "type": "bool"
        }
      ],
      "stateMutability": "nonpayable",
      "type": "function"
    },
    {
      "inputs": [
        {
          "internalType": "address",
          "name": "_celebrityAdmin",
          "type": "address"
        }
      ],
      "name": "removeCelebrityAdmin",
      "outputs": [
        {
          "internalType": "bool",
          "name": "",
          "type": "bool"
        }
      ],
      "stateMutability": "nonpayable",
      "type": "function"
    },
    {
      "inputs": [
        {
          "internalType": "address",
          "name": "_celebrityAdmin",
          "type": "address"
        }
      ],
      "name": "isCelebrityAdmin",
      "outputs": [
        {
          "internalType": "bool",
          "name": "",
          "type": "bool"
        }
      ],
      "stateMutability": "view",
      "type": "function",
      "constant": true
    },
    {
      "inputs": [
        {
          "internalType": "address",
          "name": "_minter",
          "type": "address"
        }
      ],
      "name": "addMinter",
      "outputs": [
        {
          "internalType": "bool",
          "name": "",
          "type": "bool"
        }
      ],
      "stateMutability": "nonpayable",
      "type": "function"
    },
    {
      "inputs": [
        {
          "internalType": "address",
          "name": "_minter",
          "type": "address"
        }
      ],
      "name": "removeMinter",
      "outputs": [
        {
          "internalType": "bool",
          "name": "",
          "type": "bool"
        }
      ],
      "stateMutability": "nonpayable",
      "type": "function"
    },
    {
      "inputs": [
        {
          "internalType": "address",
          "name": "nftAddress",
          "type": "address"
        },
        {
          "internalType": "address",
          "name": "creator",
          "type": "address"
        },
        {
          "internalType": "string",
          "name": "tokenURI",
          "type": "string"
        },
        {
          "internalType": "address",
          "name": "receiver",
          "type": "address"
        }
      ],
      "name": "mint721",
      "outputs": [
        {
          "internalType": "bool",
          "name": "",
          "type": "bool"
        }
      ],
      "stateMutability": "nonpayable",
      "type": "function"
    },
    {
      "inputs": [
        {
          "internalType": "address",
          "name": "nftAddress",
          "type": "address"
        },
        {
          "internalType": "address",
          "name": "creator",
          "type": "address"
        },
        {
          "internalType": "string[]",
          "name": "tokenURIs",
          "type": "string[]"
        },
        {
          "internalType": "address[]",
          "name": "receivers",
          "type": "address[]"
        }
      ],
      "name": "batchMint721",
      "outputs": [
        {
          "internalType": "uint256[]",
          "name": "tokenIds",
          "type": "uint256[]"
        }
      ],
      "stateMutability": "nonpayable",
      "type": "function"
    },
    {
      "inputs": [
        {
          "internalType": "address",
          "name": "nftAddress",
          "type": "address"
        },
        {
          "internalType": "address",
          "name": "from",
          "type": "address"
        },
        {
          "internalType": "address",
          "name": "to",
          "type": "address"
        },
        {
          "internalType": "uint256",
          "name": "tokenId",
          "type": "uint256"
        }
      ],
      "name": "safeTransfer721",
      "outputs": [
        {
          "internalType": "bool",
          "name": "",
          "type": "bool"
        }
      ],
      "stateMutability": "nonpayable",
      "type": "function"
    },
    {
      "inputs": [
        {
          "internalType": "address",
          "name": "nftAddress",
          "type": "address"
        },
        {
          "internalType": "address",
          "name": "receiver",
          "type": "address"
        },
        {
          "internalType": "uint96",
          "name": "royaltyFee",
          "type": "uint96"
        }
      ],
      "name": "setRoyaltyFee",
      "outputs": [
        {
          "internalType": "bool",
          "name": "",
          "type": "bool"
        }
      ],
      "stateMutability": "nonpayable",
      "type": "function"
    },
    {
      "inputs": [
        {
          "internalType": "address",
          "name": "nftAddress",
          "type": "address"
        },
        {
          "internalType": "uint256",
          "name": "tokenId",
          "type": "uint256"
        },
        {
          "internalType": "string",
          "name": "name",
          "type": "string"
        }
      ],
      "name": "setNameForToken",
      "outputs": [
        {
          "internalType": "bool",
          "name": "",
          "type": "bool"
        }
      ],
      "stateMutability": "nonpayable",
      "type": "function"
    },
    {
      "inputs": [
        {
          "internalType": "address",
          "name": "_minter",
          "type": "address"
        }
      ],
      "name": "isMinter",
      "outputs": [
        {
          "internalType": "bool",
          "name": "",
          "type": "bool"
        }
      ],
      "stateMutability": "view",
      "type": "function",
      "constant": true
    },
    {
      "inputs": [
        {
          "internalType": "address",
          "name": "nftAddress",
          "type": "address"
        },
        {
          "internalType": "uint256",
          "name": "tokenId",
          "type": "uint256"
        },
        {
          "components": [
            {
              "internalType": "string",
              "name": "name",
              "type": "string"
            },
            {
              "components": [
                {
                  "internalType": "uint256",
                  "name": "value",
                  "type": "uint256"
                },
                {
                  "internalType": "uint256",
                  "name": "max",
                  "type": "uint256"
                }
              ],
              "internalType": "struct Trait.Rate",
              "name": "rate",
              "type": "tuple"
            }
          ],
          "internalType": "struct Trait.Property[]",
          "name": "properties",
          "type": "tuple[]"
        }
      ],
      "name": "setStats",
      "outputs": [],
      "stateMutability": "nonpayable",
      "type": "function"
    },
    {
      "inputs": [
        {
          "internalType": "address",
          "name": "nftAddress",
          "type": "address"
        },
        {
          "internalType": "string",
          "name": "propertyName",
          "type": "string"
        }
      ],
      "name": "setProperty",
      "outputs": [],
      "stateMutability": "nonpayable",
      "type": "function"
    }
  ],
  "bytecode": "0x608060405234801561001057600080fd5b5060008054600160a060020a03191633179055611739806100326000396000f3fe608060405234801561001057600080fd5b5060043610610112576000357c0100000000000000000000000000000000000000000000000000000000900480638da5cb5b116100b4578063cdec476311610083578063cdec47631461023d578063dec9c8b514610250578063eef0530b1461027c578063f2fde38b1461028f57600080fd5b80638da5cb5b146101c0578063983b2d56146101eb578063aa271e1a146101fe578063b61240391461022a57600080fd5b806340b91c16116100f057806340b91c1614610165578063574ca3d41461017a578063793cd93e1461019a5780637cb9b510146101ad57600080fd5b80633092afd5146101175780633e12a2031461013f5780633f45b36214610152575b600080fd5b61012a610125366004610fa5565b6102a2565b60405190151581526020015b60405180910390f35b61012a61014d366004610fc7565b6103e8565b61012a61016036600461106c565b6104b5565b610178610173366004611180565b6105cf565b005b61018d610188366004611219565b61067c565b60405161013691906112aa565b61012a6101a83660046112ee565b610864565b61012a6101bb366004610fa5565b61095b565b6000546101d390600160a060020a031681565b604051600160a060020a039091168152602001610136565b61012a6101f9366004610fa5565b610a4a565b61012a61020c366004610fa5565b600160a060020a031660009081526002602052604090205460ff1690565b61012a610238366004610fa5565b610b8f565b61012a61024b366004611345565b610c76565b61012a61025e366004610fa5565b600160a060020a031660009081526001602052604090205460ff1690565b61017861028a366004611390565b610dc3565b61012a61029d366004610fa5565b610e76565b3360009081526001602052604081205460ff1661032f5760405160e560020a62461bcd02815260206004820152602660248201527f4f6e6c792063656c6562726974792061646d696e2063616e2072656d6f76652060448201527f6d696e746572000000000000000000000000000000000000000000000000000060648201526084015b60405180910390fd5b600160a060020a03821660009081526002602052604090205460ff1661039a5760405160e560020a62461bcd02815260206004820152601560248201527f4d696e74657220646f6573206e6f7420657869737400000000000000000000006044820152606401610326565b600160a060020a038216600081815260026020526040808220805460ff19169055517fe94479a9f7e1952cc78f2d6baab678adc1b772d936c6583def489e524cb666929190a2506001919050565b3360009081526002602052604081205460ff1661041a5760405160e560020a62461bcd028152600401610326906113ea565b6040517ffa8509c8000000000000000000000000000000000000000000000000000000008152600160a060020a0387169063fa8509c890610465908890889088908890600401611470565b6020604051808303816000875af1158015610484573d6000803e3d6000fd5b505050506040513d601f19601f820116820180604052508101906104a891906114a8565b5060019695505050505050565b3360009081526001602052604081205460ff1661053d5760405160e560020a62461bcd02815260206004820152602260248201527f4f70657261746f723a2063616c6c657220646f65736e2774206861766520726f60448201527f6c650000000000000000000000000000000000000000000000000000000000006064820152608401610326565b6040517f8f2fc60b000000000000000000000000000000000000000000000000000000008152600160a060020a0384811660048301526bffffffffffffffffffffffff84166024830152851690638f2fc60b90604401600060405180830381600087803b1580156105ad57600080fd5b505af11580156105c1573d6000803e3d6000fd5b506001979650505050505050565b3360009081526002602052604090205460ff166106015760405160e560020a62461bcd028152600401610326906113ea565b6040517fb48cc6e5000000000000000000000000000000000000000000000000000000008152600160a060020a0383169063b48cc6e59061064690849060040161150e565b600060405180830381600087803b15801561066057600080fd5b505af1158015610674573d6000803e3d6000fd5b505050505050565b3360009081526002602052604090205460609060ff166106b15760405160e560020a62461bcd028152600401610326906113ea565b836107015760405160e560020a62461bcd02815260206004820152601460248201527f4d696e743a20696e76616c6964206c656e6774680000000000000000000000006044820152606401610326565b8367ffffffffffffffff81111561071a5761071a6110c4565b604051908082528060200260200182016040528015610743578160200160208202803683370190505b50905060005b848110156108595787600160a060020a031663fa8509c88888888581811061077357610773611521565b90506020028101906107859190611550565b88888781811061079757610797611521565b90506020020160208101906107ac9190610fa5565b6040518563ffffffff167c01000000000000000000000000000000000000000000000000000000000281526004016107e79493929190611470565b6020604051808303816000875af1158015610806573d6000803e3d6000fd5b505050506040513d601f19601f8201168201806040525081019061082a91906114a8565b82828151811061083c5761083c611521565b60209081029190910101528061085181611597565b915050610749565b509695505050505050565b3360009081526002602052604081205460ff166108965760405160e560020a62461bcd028152600401610326906113ea565b6040517fc39cbef1000000000000000000000000000000000000000000000000000000008152600160a060020a0385169063c39cbef1906108dd90869086906004016115d9565b600060405180830381600087803b1580156108f757600080fd5b505af115801561090b573d6000803e3d6000fd5b505050508284600160a060020a03167f7236d4a3d4e87227010b38219c52fa6685ea7a8ddb35f2bb736d715a2e5fe28384604051610949919061150e565b60405180910390a35060019392505050565b60008054600160a060020a031633146109895760405160e560020a62461bcd028152600401610326906115fa565b600160a060020a03821660009081526001602052604090205460ff16156109f55760405160e560020a62461bcd02815260206004820152601d60248201527f43656c6562726974792041646d696e20616c72656164792065786973740000006044820152606401610326565b600160a060020a0382166000818152600160208190526040808320805460ff1916909217909155517f457ab662646a83a1b7f92f0f9ec13bc65a2181eb55682439a664aa748b7530ec9190a25060015b919050565b3360009081526001602052604081205460ff16610ad25760405160e560020a62461bcd02815260206004820152602360248201527f4f6e6c792063656c6562726974792061646d696e2063616e20616464206d696e60448201527f74657200000000000000000000000000000000000000000000000000000000006064820152608401610326565b600160a060020a03821660009081526002602052604090205460ff1615610b3e5760405160e560020a62461bcd02815260206004820152601460248201527f4d696e74657220616c72656164792065786973740000000000000000000000006044820152606401610326565b600160a060020a038216600081815260026020526040808220805460ff19166001179055517f6ae172837ea30b801fbfcdd4108aa1d5bf8ff775444fd70256b44e6bf3dfc3f69190a2506001919050565b60008054600160a060020a03163314610bbd5760405160e560020a62461bcd028152600401610326906115fa565b600160a060020a03821660009081526001602052604090205460ff16610c285760405160e560020a62461bcd02815260206004820152601e60248201527f43656c6562726974792041646d696e20646f6573206e6f7420657869737400006044820152606401610326565b600160a060020a038216600081815260016020526040808220805460ff19169055517f6604bbeecadf4131a44b7d8b9669a98227c66cef3d824e804f01be14a016a36b9190a2506001919050565b3360009081526002602052604081205460ff16610ca85760405160e560020a62461bcd028152600401610326906113ea565b600160a060020a038316610d275760405160e560020a62461bcd02815260206004820152602b60248201527f726563656976657220616464726573732073686f756c64206e6f74206265207a60448201527f65726f20616464726573730000000000000000000000000000000000000000006064820152608401610326565b6040517fb88d4fde000000000000000000000000000000000000000000000000000000008152600160a060020a038581166004830152848116602483015260448201849052608060648301526000608483015286169063b88d4fde9060a401600060405180830381600087803b158015610da057600080fd5b505af1158015610db4573d6000803e3d6000fd5b50600198975050505050505050565b3360009081526002602052604090205460ff16610df55760405160e560020a62461bcd028152600401610326906113ea565b6040517fdb06b4e2000000000000000000000000000000000000000000000000000000008152600160a060020a0385169063db06b4e290610e3e9086908690869060040161162f565b600060405180830381600087803b158015610e5857600080fd5b505af1158015610e6c573d6000803e3d6000fd5b5050505050505050565b60008054600160a060020a03163314610ea45760405160e560020a62461bcd028152600401610326906115fa565b600160a060020a038216610f235760405160e560020a62461bcd02815260206004820152602660248201527f4f776e61626c653a206e6577206f776e657220697320746865207a65726f206160448201527f64647265737300000000000000000000000000000000000000000000000000006064820152608401610326565b60008054604051600160a060020a03808616939216917f8be0079c531659141344cd1fd0a4f28419497f9722a3daafe3b4186f6b6457e091a35060008054600160a060020a03831673ffffffffffffffffffffffffffffffffffffffff199091161790556001919050565b8035600160a060020a0381168114610a4557600080fd5b600060208284031215610fb757600080fd5b610fc082610f8e565b9392505050565b600080600080600060808688031215610fdf57600080fd5b610fe886610f8e565b9450610ff660208701610f8e565b9350604086013567ffffffffffffffff8082111561101357600080fd5b818801915088601f83011261102757600080fd5b81358181111561103657600080fd5b89602082850101111561104857600080fd5b60208301955080945050505061106060608701610f8e565b90509295509295909350565b60008060006060848603121561108157600080fd5b61108a84610f8e565b925061109860208501610f8e565b915060408401356bffffffffffffffffffffffff811681146110b957600080fd5b809150509250925092565b7f4e487b7100000000000000000000000000000000000000000000000000000000600052604160045260246000fd5b600082601f83011261110457600080fd5b813567ffffffffffffffff8082111561111f5761111f6110c4565b604051601f8301601f19908116603f01168101908282118183101715611147576111476110c4565b8160405283815286602085880101111561116057600080fd5b836020870160208301376000602085830101528094505050505092915050565b6000806040838503121561119357600080fd5b61119c83610f8e565b9150602083013567ffffffffffffffff8111156111b857600080fd5b6111c4858286016110f3565b9150509250929050565b60008083601f8401126111e057600080fd5b50813567ffffffffffffffff8111156111f857600080fd5b602083019150836020808302850101111561121257600080fd5b9250929050565b6000806000806000806080878903121561123257600080fd5b61123b87610f8e565b955061124960208801610f8e565b9450604087013567ffffffffffffffff8082111561126657600080fd5b6112728a838b016111ce565b9096509450606089013591508082111561128b57600080fd5b5061129889828a016111ce565b979a9699509497509295939492505050565b6020808252825182820181905260009190848201906040850190845b818110156112e2578351835292840192918401916001016112c6565b50909695505050505050565b60008060006060848603121561130357600080fd5b61130c84610f8e565b925060208401359150604084013567ffffffffffffffff81111561132f57600080fd5b61133b868287016110f3565b9150509250925092565b6000806000806080858703121561135b57600080fd5b61136485610f8e565b935061137260208601610f8e565b925061138060408601610f8e565b9396929550929360600135925050565b600080600080606085870312156113a657600080fd5b6113af85610f8e565b935060208501359250604085013567ffffffffffffffff8111156113d257600080fd5b6113de878288016111ce565b95989497509550505050565b60208082526027908201527f4d696e7465723a2063616c6c657220646f65736e27742068617665206d696e7460408201527f657220526f6c6500000000000000000000000000000000000000000000000000606082015260800190565b81835281816020850137506000828201602090810191909152601f909101601f19169091010190565b6000600160a060020a03808716835260606020840152611494606084018688611447565b915080841660408401525095945050505050565b6000602082840312156114ba57600080fd5b5051919050565b6000815180845260005b818110156114e7576020818501810151868301820152016114cb565b818111156114f9576000602083870101525b50601f01601f19169290920160200192915050565b602081526000610fc060208301846114c1565b7f4e487b7100000000000000000000000000000000000000000000000000000000600052603260045260246000fd5b6000808335601e1984360301811261156757600080fd5b83018035915067ffffffffffffffff82111561158257600080fd5b60200191503681900382131561121257600080fd5b60006000198214156115d2577f4e487b7100000000000000000000000000000000000000000000000000000000600052601160045260246000fd5b5060010190565b8281526040602082015260006115f260408301846114c1565b949350505050565b6020808252818101527f4f776e61626c653a2063616c6c6572206973206e6f7420746865206f776e6572604082015260600190565b83815260406020808301829052828201849052600091906060908185018682028601830188865b898110156116f357888303605f190184528135368c9003605e1901811261167c57600080fd5b8b01803536829003601e1901811261169357600080fd5b8101803567ffffffffffffffff8111156116ac57600080fd5b8036038313156116bb57600080fd5b8886526116cd898701828a8501611447565b83890135878a0152928a0135958a01959095525093850193925090840190600101611656565b50909a995050505050505050505056fea2646970667358221220afaf5253e32dc7a4047b4e73290981b80c76189bdf609ee6e47d88fc17aaf0df64736f6c634300080b0033",
  "immutableReferences": {},
  "source": "// SPDX-License-Identifier:UNLICENSED\npragma solidity 0.8.11;\n\nimport \"./Trait.sol\";\n\ninterface IBaseNFT721 {\n    function setRoyalty(address receiver, uint96 fee) external;\n\n    function createCollectible(address creator, string memory tokenURI)\n        external\n        returns (uint256);\n\n    function safeTransferFrom(\n        address from,\n        address to,\n        uint256 tokenId,\n        bytes calldata data\n    ) external;\n\n    function changeName(uint256 tokenId, string memory newName) external;\n\n    function mint(\n        address _creator,\n        string calldata _tokenURI,\n        address receiver\n    ) external returns (uint256 _tokenId);\n\n    function setStats(uint256 tokenId, Trait.Property[] calldata properties)\n        external;\n\n    function addProperty(string memory property) external;\n}\n\ncontract Operator {\n    event OwnershipTransferred(\n        address indexed previousOwner,\n        address indexed newOwner\n    );\n\n    event MinterAdded(address indexed minter);\n\n    event MinterRemoved(address indexed minter);\n\n    event CelebrityAdminAdded(address indexed admin);\n\n    event CelebrityAdminRemoved(address indexed admin);\n\n    event NameChanged(\n        address indexed nftaddress,\n        uint256 indexed tokenId,\n        string name\n    );\n\n    address public owner;\n    mapping(address => bool) private celebrityAdmin;\n    mapping(address => bool) private minters;\n\n    constructor() {\n        owner = msg.sender;\n    }\n\n    modifier onlyOwner() {\n        require(owner == msg.sender, \"Ownable: caller is not the owner\");\n        _;\n    }\n\n    modifier onlyMinters() {\n        require(minters[msg.sender], \"Minter: caller doesn't have minter Role\");\n        _;\n    }\n\n    function transferOwnership(address newOwner)\n        external\n        onlyOwner\n        returns (bool)\n    {\n        require(\n            newOwner != address(0),\n            \"Ownable: new owner is the zero address\"\n        );\n        emit OwnershipTransferred(owner, newOwner);\n        owner = newOwner;\n        return true;\n    }\n\n    function addCelebrityAdmin(address _celebrityAdmin)\n        external\n        onlyOwner\n        returns (bool)\n    {\n        require(\n            !celebrityAdmin[_celebrityAdmin],\n            \"Celebrity Admin already exist\"\n        );\n        celebrityAdmin[_celebrityAdmin] = true;\n        emit CelebrityAdminAdded(_celebrityAdmin);\n        return true;\n    }\n\n    function removeCelebrityAdmin(address _celebrityAdmin)\n        external\n        onlyOwner\n        returns (bool)\n    {\n        require(\n            celebrityAdmin[_celebrityAdmin],\n            \"Celebrity Admin does not exist\"\n        );\n        celebrityAdmin[_celebrityAdmin] = false;\n        emit CelebrityAdminRemoved(_celebrityAdmin);\n        return true;\n    }\n\n    function isCelebrityAdmin(address _celebrityAdmin)\n        external\n        view\n        returns (bool)\n    {\n        return celebrityAdmin[_celebrityAdmin];\n    }\n\n    function addMinter(address _minter) external returns (bool) {\n        require(\n            celebrityAdmin[msg.sender],\n            \"Only celebrity admin can add minter\"\n        );\n        require(!minters[_minter], \"Minter already exist\");\n        minters[_minter] = true;\n        emit MinterAdded(_minter);\n        return true;\n    }\n\n    function removeMinter(address _minter) external returns (bool) {\n        require(\n            celebrityAdmin[msg.sender],\n            \"Only celebrity admin can remove minter\"\n        );\n        require(minters[_minter], \"Minter does not exist\");\n        minters[_minter] = false;\n        emit MinterRemoved(_minter);\n        return true;\n    }\n\n    function mint721(\n        address nftAddress,\n        address creator,\n        string calldata tokenURI,\n        address receiver\n    ) external onlyMinters returns (bool) {\n        IBaseNFT721(nftAddress).mint(creator, tokenURI, receiver);\n        return true;\n    }\n\n    function batchMint721(\n        address nftAddress,\n        address creator,\n        string[] calldata tokenURIs,\n        address[] calldata receivers\n    ) external virtual onlyMinters returns (uint256[] memory tokenIds) {\n        require(tokenURIs.length > 0, \"Mint: invalid length\");\n        tokenIds = new uint256[](tokenURIs.length);\n        for (uint256 i = 0; i < tokenURIs.length; i++) {\n            tokenIds[i] = IBaseNFT721(nftAddress).mint(\n                creator,\n                tokenURIs[i],\n                receivers[i]\n            );\n        }\n        return tokenIds;\n    }\n\n    function safeTransfer721(\n        address nftAddress,\n        address from,\n        address to,\n        uint256 tokenId\n    ) external onlyMinters returns (bool) {\n        require(\n            to != address(0),\n            \"receiver address should not be zero address\"\n        );\n        IBaseNFT721(nftAddress).safeTransferFrom(from, to, tokenId, \"\");\n        return true;\n    }\n\n    function setRoyaltyFee(\n        address nftAddress,\n        address receiver,\n        uint96 royaltyFee\n    ) external returns (bool) {\n        require(\n            celebrityAdmin[msg.sender],\n            \"Operator: caller doesn't have role\"\n        );\n        IBaseNFT721(nftAddress).setRoyalty(receiver, royaltyFee);\n        return true;\n    }\n\n    function setNameForToken(\n        address nftAddress,\n        uint256 tokenId,\n        string memory name\n    ) external onlyMinters returns (bool) {\n        IBaseNFT721(nftAddress).changeName(tokenId, name);\n        emit NameChanged(nftAddress, tokenId, name);\n        return true;\n    }\n\n    function isMinter(address _minter) external view returns (bool) {\n        return minters[_minter];\n    }\n\n    function setStats(\n        address nftAddress,\n        uint256 tokenId,\n        Trait.Property[] calldata properties\n    ) external onlyMinters {\n        IBaseNFT721(nftAddress).setStats(tokenId, properties);\n    }\n\n    function setProperty(address nftAddress, string memory propertyName)\n        external\n        onlyMinters\n    {\n        IBaseNFT721(nftAddress).addProperty(propertyName);\n    }\n}\n",
  "sourcePath": "/Users/selvam/workspace/nft/beyondlife_nft_contracts/contracts/operator.sol",
  "compiler": {
    "name": "solc",
    "version": "0.8.11+commit.d7f03943.Emscripten.clang"
  },
  "schemaVersion": "3.4.7",
  "updatedAt": "2022-05-26T16:47:32.849Z",
  "networkType": "ethereum",
  "devdoc": {
    "kind": "dev",
    "methods": {},
    "version": 1
  },
  "userdoc": {
    "kind": "user",
    "methods": {},
    "version": 1
  }
}